{
  "contractName": "ZombieFeeding",
  "abi": [
    {
      "anonymous": false,
      "inputs": [
        {
          "indexed": false,
          "internalType": "uint256",
          "name": "zombieId",
          "type": "uint256"
        },
        {
          "indexed": false,
          "internalType": "string",
          "name": "name",
          "type": "string"
        },
        {
          "indexed": false,
          "internalType": "uint256",
          "name": "dna",
          "type": "uint256"
        }
      ],
      "name": "NewZombie",
      "type": "event"
    },
    {
      "anonymous": false,
      "inputs": [
        {
          "indexed": true,
          "internalType": "address",
          "name": "previousOwner",
          "type": "address"
        },
        {
          "indexed": true,
          "internalType": "address",
          "name": "newOwner",
          "type": "address"
        }
      ],
      "name": "OwnershipTransferred",
      "type": "event"
    },
    {
      "inputs": [
        {
          "internalType": "string",
          "name": "_name",
          "type": "string"
        }
      ],
      "name": "createRandomZombie",
      "outputs": [],
      "stateMutability": "nonpayable",
      "type": "function"
    },
    {
      "inputs": [],
      "name": "isOwner",
      "outputs": [
        {
          "internalType": "bool",
          "name": "",
          "type": "bool"
        }
      ],
      "stateMutability": "view",
      "type": "function"
    },
    {
      "inputs": [],
      "name": "owner",
      "outputs": [
        {
          "internalType": "address",
          "name": "",
          "type": "address"
        }
      ],
      "stateMutability": "view",
      "type": "function"
    },
    {
      "inputs": [
        {
          "internalType": "address",
          "name": "",
          "type": "address"
        }
      ],
      "name": "ownerZombieCount",
      "outputs": [
        {
          "internalType": "uint256",
          "name": "",
          "type": "uint256"
        }
      ],
      "stateMutability": "view",
      "type": "function"
    },
    {
      "inputs": [],
      "name": "renounceOwnership",
      "outputs": [],
      "stateMutability": "nonpayable",
      "type": "function"
    },
    {
      "inputs": [
        {
          "internalType": "address",
          "name": "newOwner",
          "type": "address"
        }
      ],
      "name": "transferOwnership",
      "outputs": [],
      "stateMutability": "nonpayable",
      "type": "function"
    },
    {
      "inputs": [
        {
          "internalType": "uint256",
          "name": "",
          "type": "uint256"
        }
      ],
      "name": "zombieToOwner",
      "outputs": [
        {
          "internalType": "address",
          "name": "",
          "type": "address"
        }
      ],
      "stateMutability": "view",
      "type": "function"
    },
    {
      "inputs": [
        {
          "internalType": "uint256",
          "name": "",
          "type": "uint256"
        }
      ],
      "name": "zombies",
      "outputs": [
        {
          "internalType": "string",
          "name": "name",
          "type": "string"
        },
        {
          "internalType": "uint256",
          "name": "dna",
          "type": "uint256"
        },
        {
          "internalType": "uint32",
          "name": "level",
          "type": "uint32"
        },
        {
          "internalType": "uint32",
          "name": "readyTime",
          "type": "uint32"
        },
        {
          "internalType": "uint16",
          "name": "winCount",
          "type": "uint16"
        },
        {
          "internalType": "uint16",
          "name": "lossCount",
          "type": "uint16"
        }
      ],
      "stateMutability": "view",
      "type": "function"
    },
    {
      "inputs": [
        {
          "internalType": "uint256",
          "name": "_zombieId",
          "type": "uint256"
        },
        {
          "internalType": "uint256",
          "name": "_targetDna",
          "type": "uint256"
        },
        {
          "internalType": "string",
          "name": "_species",
          "type": "string"
        }
      ],
      "name": "feedAndMultiply",
      "outputs": [],
      "stateMutability": "nonpayable",
      "type": "function"
    },
    {
      "inputs": [
        {
          "internalType": "uint256",
          "name": "_zombieId",
          "type": "uint256"
        },
        {
          "internalType": "uint256",
          "name": "_kittyId",
          "type": "uint256"
        }
      ],
      "name": "getKitty",
      "outputs": [
        {
          "internalType": "uint256",
          "name": "kittyDna",
          "type": "uint256"
        }
      ],
      "stateMutability": "nonpayable",
      "type": "function"
    }
  ],
  "bytecode": "0x60806040526010600155600154600a0a600255620151806003557306012c8cf97bead5deae237070f9587f8e7a266d600760006101000a81548173ffffffffffffffffffffffffffffffffffffffff021916908373ffffffffffffffffffffffffffffffffffffffff160217905550600760009054906101000a900473ffffffffffffffffffffffffffffffffffffffff16600860006101000a81548173ffffffffffffffffffffffffffffffffffffffff021916908373ffffffffffffffffffffffffffffffffffffffff160217905550336000806101000a81548173ffffffffffffffffffffffffffffffffffffffff021916908373ffffffffffffffffffffffffffffffffffffffff1602179055506000809054906101000a900473ffffffffffffffffffffffffffffffffffffffff1673ffffffffffffffffffffffffffffffffffffffff16600073ffffffffffffffffffffffffffffffffffffffff167f8be0079c531659141344cd1fd0a4f28419497f9722a3daafe3b4186f6b6457e060405160405180910390a36114418061019c6000396000f3fe608060405234801561001057600080fd5b506004361061009e5760003560e01c8063715018a611610066578063715018a6146101845780637bff0a011461018e5780638da5cb5b146101aa5780638f32d59b146101c8578063f2fde38b146101e65761009e565b806301afd7e1146100a35780632052465e146100d3578063528b7b8f146101085780636b0bfc80146101385780636bb06bc814610154575b600080fd5b6100bd60048036036100b89190810190610d00565b610202565b6040516100ca9190611229565b60405180910390f35b6100ed60048036036100e89190810190610e45565b61021a565b6040516100ff96959493929190611161565b60405180910390f35b610122600480360361011d9190810190610e45565b610337565b60405161012f919061112b565b60405180910390f35b610152600480360361014d9190810190610eaa565b61036a565b005b61016e60048036036101699190810190610e6e565b6104cd565b60405161017b9190611229565b60405180910390f35b61018c610645565b005b6101a860048036036101a39190810190610e04565b610715565b005b6101b2610730565b6040516101bf919061112b565b60405180910390f35b6101d0610759565b6040516101dd9190611146565b60405180910390f35b61020060048036036101fb9190810190610d00565b6107b0565b005b60066020528060005260406000206000915090505481565b6004818154811061022757fe5b9060005260206000209060030201600091509050806000018054600181600116156101000203166002900480601f0160208091040260200160405190810160405280929190818152602001828054600181600116156101000203166002900480156102d35780601f106102a8576101008083540402835291602001916102d3565b820191906000526020600020905b8154815290600101906020018083116102b657829003601f168201915b5050505050908060010154908060020160009054906101000a900463ffffffff16908060020160049054906101000a900463ffffffff16908060020160089054906101000a900461ffff169080600201600a9054906101000a900461ffff16905086565b60056020528060005260406000206000915054906101000a900473ffffffffffffffffffffffffffffffffffffffff1681565b826005600082815260200190815260200160002060009054906101000a900473ffffffffffffffffffffffffffffffffffffffff1673ffffffffffffffffffffffffffffffffffffffff163373ffffffffffffffffffffffffffffffffffffffff161461040c576040517f08c379a000000000000000000000000000000000000000000000000000000000815260040161040390611209565b60405180910390fd5b60006004858154811061041b57fe5b90600052602060002090600302019050600254848161043657fe5b06935060006002858360010154018161044b57fe5b04905060405160200161045d90611116565b604051602081830303815290604052805190602001208460405160200161048491906110ff565b6040516020818303038152906040528051906020012014156104b3576016606482816104ac57fe5b0682030190505b8082600101819055506104c5826107cd565b505050505050565b600080821415610512576040517f08c379a0000000000000000000000000000000000000000000000000000000008152600401610509906111e9565b60405180910390fd5b600860009054906101000a900473ffffffffffffffffffffffffffffffffffffffff1673ffffffffffffffffffffffffffffffffffffffff1663e98b7f4d836040518263ffffffff1660e01b815260040161056d9190611229565b6101406040518083038186803b15801561058657600080fd5b505afa15801561059a573d6000803e3d6000fd5b505050506040513d601f19601f820116820180604052506105be9190810190610d29565b90919293949596979850909192939495969750909192939495965090919293949550909192939450909192935090919250909150905080915050600081141561063c576040517f08c379a0000000000000000000000000000000000000000000000000000000008152600401610633906111c9565b60405180910390fd5b80905092915050565b61064d610759565b61065657600080fd5b600073ffffffffffffffffffffffffffffffffffffffff166000809054906101000a900473ffffffffffffffffffffffffffffffffffffffff1673ffffffffffffffffffffffffffffffffffffffff167f8be0079c531659141344cd1fd0a4f28419497f9722a3daafe3b4186f6b6457e060405160405180910390a360008060006101000a81548173ffffffffffffffffffffffffffffffffffffffff021916908373ffffffffffffffffffffffffffffffffffffffff160217905550565b6000610720826107f7565b905061072c828261083a565b5050565b60008060009054906101000a900473ffffffffffffffffffffffffffffffffffffffff16905090565b60008060009054906101000a900473ffffffffffffffffffffffffffffffffffffffff1673ffffffffffffffffffffffffffffffffffffffff163373ffffffffffffffffffffffffffffffffffffffff1614905090565b6107b8610759565b6107c157600080fd5b6107ca81610a9f565b50565b60035442018160020160046101000a81548163ffffffff021916908363ffffffff16021790555050565b6000808260405160200161080b91906110ff565b6040516020818303038152906040528051906020012060001c9050600254818161083157fe5b06915050919050565b60046040518060c00160405280848152602001838152602001600163ffffffff168152602001600354420163ffffffff168152602001600061ffff168152602001600061ffff16815250908060018154018082558091505060019003906000526020600020906003020160009091909190915060008201518160000190805190602001906108c9929190610bb3565b506020820151816001015560408201518160020160006101000a81548163ffffffff021916908363ffffffff16021790555060608201518160020160046101000a81548163ffffffff021916908363ffffffff16021790555060808201518160020160086101000a81548161ffff021916908361ffff16021790555060a082015181600201600a6101000a81548161ffff021916908361ffff160217905550505060006001600480549050039050336005600083815260200190815260200160002060006101000a81548173ffffffffffffffffffffffffffffffffffffffff021916908373ffffffffffffffffffffffffffffffffffffffff160217905550610a1c6001600660003373ffffffffffffffffffffffffffffffffffffffff1673ffffffffffffffffffffffffffffffffffffffff16815260200190815260200160002054610b9790919063ffffffff16565b600660003373ffffffffffffffffffffffffffffffffffffffff1673ffffffffffffffffffffffffffffffffffffffff168152602001908152602001600020819055507f88f026aacbbecc90c18411df4b1185fd8d9be2470f1962f192bf84a27d0704b7818484604051610a9293929190611244565b60405180910390a1505050565b600073ffffffffffffffffffffffffffffffffffffffff168173ffffffffffffffffffffffffffffffffffffffff161415610ad957600080fd5b8073ffffffffffffffffffffffffffffffffffffffff166000809054906101000a900473ffffffffffffffffffffffffffffffffffffffff1673ffffffffffffffffffffffffffffffffffffffff167f8be0079c531659141344cd1fd0a4f28419497f9722a3daafe3b4186f6b6457e060405160405180910390a3806000806101000a81548173ffffffffffffffffffffffffffffffffffffffff021916908373ffffffffffffffffffffffffffffffffffffffff16021790555050565b600080828401905083811015610ba957fe5b8091505092915050565b828054600181600116156101000203166002900490600052602060002090601f016020900481019282601f10610bf457805160ff1916838001178555610c22565b82800160010185558215610c22579182015b82811115610c21578251825591602001919060010190610c06565b5b509050610c2f9190610c33565b5090565b610c5591905b80821115610c51576000816000905550600101610c39565b5090565b90565b600081359050610c67816113c6565b92915050565b600081519050610c7c816113dd565b92915050565b600082601f830112610c9357600080fd5b8135610ca6610ca1826112af565b611282565b91508082526020830160208301858383011115610cc257600080fd5b610ccd838284611373565b50505092915050565b600081359050610ce5816113f4565b92915050565b600081519050610cfa816113f4565b92915050565b600060208284031215610d1257600080fd5b6000610d2084828501610c58565b91505092915050565b6000806000806000806000806000806101408b8d031215610d4957600080fd5b6000610d578d828e01610c6d565b9a50506020610d688d828e01610c6d565b9950506040610d798d828e01610ceb565b9850506060610d8a8d828e01610ceb565b9750506080610d9b8d828e01610ceb565b96505060a0610dac8d828e01610ceb565b95505060c0610dbd8d828e01610ceb565b94505060e0610dce8d828e01610ceb565b935050610100610de08d828e01610ceb565b925050610120610df28d828e01610ceb565b9150509295989b9194979a5092959850565b600060208284031215610e1657600080fd5b600082013567ffffffffffffffff811115610e3057600080fd5b610e3c84828501610c82565b91505092915050565b600060208284031215610e5757600080fd5b6000610e6584828501610cd6565b91505092915050565b60008060408385031215610e8157600080fd5b6000610e8f85828601610cd6565b9250506020610ea085828601610cd6565b9150509250929050565b600080600060608486031215610ebf57600080fd5b6000610ecd86828701610cd6565b9350506020610ede86828701610cd6565b925050604084013567ffffffffffffffff811115610efb57600080fd5b610f0786828701610c82565b9150509250925092565b610f1a8161130d565b82525050565b610f298161131f565b82525050565b6000610f3a826112e6565b610f4481856112f1565b9350610f54818560208601611382565b610f5d816113b5565b840191505092915050565b6000610f73826112e6565b610f7d8185611302565b9350610f8d818560208601611382565b80840191505092915050565b6000610fa4826112db565b610fae81856112f1565b9350610fbe818560208601611382565b610fc7816113b5565b840191505092915050565b6000610fdf6013836112f1565b91507f6b6974747920646e61206e6f7420666f756e64000000000000000000000000006000830152602082019050919050565b600061101f6012836112f1565b91507f6b69747479206964206e6f7420666f756e6400000000000000000000000000006000830152602082019050919050565b600061105f600583611302565b91507f6b697474790000000000000000000000000000000000000000000000000000006000830152600582019050919050565b600061109f6009836112f1565b91507f6e6f74206f776e657200000000000000000000000000000000000000000000006000830152602082019050919050565b6110db8161132b565b82525050565b6110ea81611359565b82525050565b6110f981611363565b82525050565b600061110b8284610f68565b915081905092915050565b600061112182611052565b9150819050919050565b60006020820190506111406000830184610f11565b92915050565b600060208201905061115b6000830184610f20565b92915050565b600060c082019050818103600083015261117b8189610f99565b905061118a60208301886110e1565b61119760408301876110f0565b6111a460608301866110f0565b6111b160808301856110d2565b6111be60a08301846110d2565b979650505050505050565b600060208201905081810360008301526111e281610fd2565b9050919050565b6000602082019050818103600083015261120281611012565b9050919050565b6000602082019050818103600083015261122281611092565b9050919050565b600060208201905061123e60008301846110e1565b92915050565b600060608201905061125960008301866110e1565b818103602083015261126b8185610f2f565b905061127a60408301846110e1565b949350505050565b6000604051905081810181811067ffffffffffffffff821117156112a557600080fd5b8060405250919050565b600067ffffffffffffffff8211156112c657600080fd5b601f19601f8301169050602081019050919050565b600081519050919050565b600081519050919050565b600082825260208201905092915050565b600081905092915050565b600061131882611339565b9050919050565b60008115159050919050565b600061ffff82169050919050565b600073ffffffffffffffffffffffffffffffffffffffff82169050919050565b6000819050919050565b600063ffffffff82169050919050565b82818337600083830152505050565b60005b838110156113a0578082015181840152602081019050611385565b838111156113af576000848401525b50505050565b6000601f19601f8301169050919050565b6113cf8161130d565b81146113da57600080fd5b50565b6113e68161131f565b81146113f157600080fd5b50565b6113fd81611359565b811461140857600080fd5b5056fea264697066735822122043ab8f447cf0276c449c98ae0af768dcd4f69195dd30ae514af60598fb5c52bc64736f6c63430006000033",
  "source": "pragma solidity >=0.6.0;\r\npragma experimental ABIEncoderV2;\r\nimport \"./ZombieFactory.sol\";\r\n\r\ninterface KittyInterface{\r\n  function getKitty(uint256 _id)\r\n        external\r\n        view\r\n        returns (\r\n        bool isGestating,\r\n        bool isReady,\r\n        uint256 cooldownIndex,\r\n        uint256 nextActionAt,\r\n        uint256 siringWithId,\r\n        uint256 birthTime,\r\n        uint256 matronId,\r\n        uint256 sireId,\r\n        uint256 generation,\r\n        uint256 genes\r\n    );\r\n}\r\n\r\ncontract ZombieFeeding is ZombieFactory{\r\n\r\n  address ckAddress = 0x06012c8cf97BEaD5deAe237070F9587f8E7A266d;\r\n  KittyInterface kittyContract = KittyInterface(ckAddress);\r\n\r\n  modifier onlyOwnerOf(uint _zombieId) {\r\n    require(msg.sender == zombieToOwner[_zombieId], 'not owner');\r\n    _;\r\n  }\r\n\r\n  function _triggerCooldown(Zombie storage _zombie) private{\r\n    _zombie.readyTime = uint32(now + cooldownTime);\r\n  }\r\n\r\n  function _isReady(Zombie memory _zombie) internal view returns(bool){\r\n    return (_zombie.readyTime<=now);\r\n  }\r\n\r\n  function feedAndMultiply(uint _zombieId, uint _targetDna, string memory _species) public onlyOwnerOf(_zombieId){\r\n    Zombie storage myZombie = zombies[_zombieId];\r\n    //require(_isReady(myZombie), \"zombie is not ready yet\");\r\n    _targetDna = _targetDna % dnaModulus;\r\n    uint newDna = (myZombie.dna + _targetDna) / 2;\r\n    if (keccak256(abi.encodePacked(_species)) == keccak256(abi.encodePacked(\"kitty\"))) {\r\n      newDna = newDna - (newDna % 100) + 22;\r\n    }\r\n    myZombie.dna = newDna;\r\n    _triggerCooldown(myZombie);\r\n  }\r\n\r\n  function getKitty(uint _zombieId, uint _kittyId) public returns(uint kittyDna) {\r\n    require(_kittyId!=0, 'kitty id not found');\r\n    (,,,,,,,,,kittyDna) = kittyContract.getKitty(_kittyId);\r\n    //feedAndMultiply(_zombieId, kittyDna, \"kitty\");\r\n    require(kittyDna!=0, 'kitty dna not found');\r\n    return kittyDna;\r\n  }\r\n}\r\n",
  "sourcePath": "C:\\Users\\alifa\\Downloads\\dapp\\yadulla_inu\\contracts\\ZombieFeeding.sol",
  "compiler": {
    "name": "solc",
    "version": "0.6.0+commit.26b70077.Emscripten.clang"
  },
  "schemaVersion": "3.4.4",
  "updatedAt": "2022-02-27T23:06:59.563Z",
  "devdoc": {
    "methods": {
      "renounceOwnership()": {
        "details": "Allows the current owner to relinquish control of the contract."
      },
      "transferOwnership(address)": {
        "details": "Allows the current owner to transfer control of the contract to a newOwner.",
        "params": {
          "newOwner": "The address to transfer ownership to."
        }
      }
    }
  },
  "userdoc": {
    "methods": {
      "renounceOwnership()": {
        "notice": "Renouncing to ownership will leave the contract without an owner. It will not be possible to call the functions with the `onlyOwner` modifier anymore."
      }
    }
  }
}