{
  "contractName": "ZombieHelper",
  "abi": [
    {
      "anonymous": false,
      "inputs": [
        {
          "indexed": false,
          "internalType": "uint256",
          "name": "zombieId",
          "type": "uint256"
        },
        {
          "indexed": false,
          "internalType": "string",
          "name": "name",
          "type": "string"
        },
        {
          "indexed": false,
          "internalType": "uint256",
          "name": "dna",
          "type": "uint256"
        }
      ],
      "name": "NewZombie",
      "type": "event"
    },
    {
      "anonymous": false,
      "inputs": [
        {
          "indexed": true,
          "internalType": "address",
          "name": "previousOwner",
          "type": "address"
        },
        {
          "indexed": true,
          "internalType": "address",
          "name": "newOwner",
          "type": "address"
        }
      ],
      "name": "OwnershipTransferred",
      "type": "event"
    },
    {
      "inputs": [
        {
          "internalType": "string",
          "name": "_name",
          "type": "string"
        }
      ],
      "name": "createRandomZombie",
      "outputs": [],
      "stateMutability": "nonpayable",
      "type": "function"
    },
    {
      "inputs": [
        {
          "internalType": "uint256",
          "name": "_zombieId",
          "type": "uint256"
        },
        {
          "internalType": "uint256",
          "name": "_targetDna",
          "type": "uint256"
        },
        {
          "internalType": "string",
          "name": "_species",
          "type": "string"
        }
      ],
      "name": "feedAndMultiply",
      "outputs": [],
      "stateMutability": "nonpayable",
      "type": "function"
    },
    {
      "inputs": [
        {
          "internalType": "uint256",
          "name": "_zombieId",
          "type": "uint256"
        },
        {
          "internalType": "uint256",
          "name": "_kittyId",
          "type": "uint256"
        }
      ],
      "name": "getKitty",
      "outputs": [
        {
          "internalType": "uint256",
          "name": "kittyDna",
          "type": "uint256"
        }
      ],
      "stateMutability": "nonpayable",
      "type": "function"
    },
    {
      "inputs": [],
      "name": "isOwner",
      "outputs": [
        {
          "internalType": "bool",
          "name": "",
          "type": "bool"
        }
      ],
      "stateMutability": "view",
      "type": "function",
      "constant": true
    },
    {
      "inputs": [],
      "name": "levelUpFee",
      "outputs": [
        {
          "internalType": "uint256",
          "name": "",
          "type": "uint256"
        }
      ],
      "stateMutability": "view",
      "type": "function",
      "constant": true
    },
    {
      "inputs": [],
      "name": "owner",
      "outputs": [
        {
          "internalType": "address",
          "name": "",
          "type": "address"
        }
      ],
      "stateMutability": "view",
      "type": "function",
      "constant": true
    },
    {
      "inputs": [
        {
          "internalType": "address",
          "name": "",
          "type": "address"
        }
      ],
      "name": "ownerZombieCount",
      "outputs": [
        {
          "internalType": "uint256",
          "name": "",
          "type": "uint256"
        }
      ],
      "stateMutability": "view",
      "type": "function",
      "constant": true
    },
    {
      "inputs": [],
      "name": "renounceOwnership",
      "outputs": [],
      "stateMutability": "nonpayable",
      "type": "function"
    },
    {
      "inputs": [
        {
          "internalType": "address",
          "name": "newOwner",
          "type": "address"
        }
      ],
      "name": "transferOwnership",
      "outputs": [],
      "stateMutability": "nonpayable",
      "type": "function"
    },
    {
      "inputs": [
        {
          "internalType": "uint256",
          "name": "",
          "type": "uint256"
        }
      ],
      "name": "zombieToOwner",
      "outputs": [
        {
          "internalType": "address",
          "name": "",
          "type": "address"
        }
      ],
      "stateMutability": "view",
      "type": "function",
      "constant": true
    },
    {
      "inputs": [
        {
          "internalType": "uint256",
          "name": "",
          "type": "uint256"
        }
      ],
      "name": "zombies",
      "outputs": [
        {
          "internalType": "string",
          "name": "name",
          "type": "string"
        },
        {
          "internalType": "uint256",
          "name": "dna",
          "type": "uint256"
        },
        {
          "internalType": "uint32",
          "name": "level",
          "type": "uint32"
        },
        {
          "internalType": "uint32",
          "name": "readyTime",
          "type": "uint32"
        },
        {
          "internalType": "uint16",
          "name": "winCount",
          "type": "uint16"
        },
        {
          "internalType": "uint16",
          "name": "lossCount",
          "type": "uint16"
        }
      ],
      "stateMutability": "view",
      "type": "function",
      "constant": true
    },
    {
      "inputs": [],
      "name": "withdraw",
      "outputs": [],
      "stateMutability": "nonpayable",
      "type": "function"
    },
    {
      "inputs": [
        {
          "internalType": "uint256",
          "name": "_fee",
          "type": "uint256"
        }
      ],
      "name": "setLevelUpFee",
      "outputs": [],
      "stateMutability": "nonpayable",
      "type": "function"
    },
    {
      "inputs": [
        {
          "internalType": "uint256",
          "name": "_zombieId",
          "type": "uint256"
        }
      ],
      "name": "levelUp",
      "outputs": [
        {
          "internalType": "uint256",
          "name": "",
          "type": "uint256"
        }
      ],
      "stateMutability": "payable",
      "type": "function",
      "payable": true
    },
    {
      "inputs": [
        {
          "internalType": "uint256",
          "name": "_zombieId",
          "type": "uint256"
        },
        {
          "internalType": "string",
          "name": "_newName",
          "type": "string"
        }
      ],
      "name": "changeName",
      "outputs": [],
      "stateMutability": "nonpayable",
      "type": "function"
    },
    {
      "inputs": [
        {
          "internalType": "uint256",
          "name": "_zombieId",
          "type": "uint256"
        },
        {
          "internalType": "uint256",
          "name": "_newDna",
          "type": "uint256"
        }
      ],
      "name": "changeDna",
      "outputs": [],
      "stateMutability": "nonpayable",
      "type": "function"
    },
    {
      "inputs": [
        {
          "internalType": "address",
          "name": "_owner",
          "type": "address"
        }
      ],
      "name": "getZombiesByOwner",
      "outputs": [
        {
          "internalType": "uint256[]",
          "name": "",
          "type": "uint256[]"
        }
      ],
      "stateMutability": "view",
      "type": "function",
      "constant": true
    }
  ],
  "bytecode": "0x60806040526010600155600154600a0a600255620151806003557306012c8cf97bead5deae237070f9587f8e7a266d600760006101000a81548173ffffffffffffffffffffffffffffffffffffffff021916908373ffffffffffffffffffffffffffffffffffffffff160217905550600760009054906101000a900473ffffffffffffffffffffffffffffffffffffffff16600860006101000a81548173ffffffffffffffffffffffffffffffffffffffff021916908373ffffffffffffffffffffffffffffffffffffffff16021790555066071afd498d0000600955336000806101000a81548173ffffffffffffffffffffffffffffffffffffffff021916908373ffffffffffffffffffffffffffffffffffffffff1602179055506000809054906101000a900473ffffffffffffffffffffffffffffffffffffffff1673ffffffffffffffffffffffffffffffffffffffff16600073ffffffffffffffffffffffffffffffffffffffff167f8be0079c531659141344cd1fd0a4f28419497f9722a3daafe3b4186f6b6457e060405160405180910390a3611caa806101a76000396000f3fe6080604052600436106100fe5760003560e01c80636bb06bc8116100955780638f32d59b116100645780638f32d59b1461033d578063c39cbef114610368578063c4114b1214610391578063ccf670f8146103bc578063f2fde38b146103e5576100fe565b80636bb06bc814610295578063715018a6146102d25780637bff0a01146102e95780638da5cb5b14610312576100fe565b80634412e104116100d15780634412e104146101c9578063528b7b8f146102065780635faf2880146102435780636b0bfc801461026c576100fe565b806301afd7e1146101035780630ce90ec2146101405780632052465e146101705780633ccfd60b146101b2575b600080fd5b34801561010f57600080fd5b5061012a600480360361012591908101906113d1565b61040e565b6040516101379190611a59565b60405180910390f35b61015a60048036036101559190810190611516565b610426565b6040516101679190611a59565b60405180910390f35b34801561017c57600080fd5b5061019760048036036101929190810190611516565b6104cc565b6040516101a996959493929190611971565b60405180910390f35b3480156101be57600080fd5b506101c76105e9565b005b3480156101d557600080fd5b506101f060048036036101eb91908101906113d1565b610650565b6040516101fd9190611934565b60405180910390f35b34801561021257600080fd5b5061022d60048036036102289190810190611516565b61077d565b60405161023a9190611919565b60405180910390f35b34801561024f57600080fd5b5061026a60048036036102659190810190611597565b6107b0565b005b34801561027857600080fd5b50610293600480360361028e91908101906115d3565b61087a565b005b3480156102a157600080fd5b506102bc60048036036102b79190810190611597565b6109dd565b6040516102c99190611a59565b60405180910390f35b3480156102de57600080fd5b506102e7610b55565b005b3480156102f557600080fd5b50610310600480360361030b91908101906114d5565b610c25565b005b34801561031e57600080fd5b50610327610c40565b6040516103349190611919565b60405180910390f35b34801561034957600080fd5b50610352610c69565b60405161035f9190611956565b60405180910390f35b34801561037457600080fd5b5061038f600480360361038a919081019061153f565b610cc0565b005b34801561039d57600080fd5b506103a6610d96565b6040516103b39190611a59565b60405180910390f35b3480156103c857600080fd5b506103e360048036036103de9190810190611516565b610d9c565b005b3480156103f157600080fd5b5061040c600480360361040791908101906113d1565b610db7565b005b60066020528060005260406000206000915090505481565b600060095434101561046d576040517f08c379a000000000000000000000000000000000000000000000000000000000815260040161046490611a19565b60405180910390fd5b6004828154811061047a57fe5b9060005260206000209060030201600201600081819054906101000a900463ffffffff168092919060010191906101000a81548163ffffffff021916908363ffffffff16021790555050349050919050565b600481815481106104d957fe5b9060005260206000209060030201600091509050806000018054600181600116156101000203166002900480601f0160208091040260200160405190810160405280929190818152602001828054600181600116156101000203166002900480156105855780601f1061055a57610100808354040283529160200191610585565b820191906000526020600020905b81548152906001019060200180831161056857829003601f168201915b5050505050908060010154908060020160009054906101000a900463ffffffff16908060020160049054906101000a900463ffffffff16908060020160089054906101000a900461ffff169080600201600a9054906101000a900461ffff16905086565b6105f1610c69565b6105fa57600080fd5b6000610604610c40565b90508073ffffffffffffffffffffffffffffffffffffffff166108fc479081150290604051600060405180830381858888f1935050505015801561064c573d6000803e3d6000fd5b5050565b606080600660008473ffffffffffffffffffffffffffffffffffffffff1673ffffffffffffffffffffffffffffffffffffffff168152602001908152602001600020546040519080825280602002602001820160405280156106c15781602001602082028038833980820191505090505b509050600080905060008090505b600480549050811015610772578473ffffffffffffffffffffffffffffffffffffffff166005600083815260200190815260200160002060009054906101000a900473ffffffffffffffffffffffffffffffffffffffff1673ffffffffffffffffffffffffffffffffffffffff161415610765578083838151811061075057fe5b60200260200101818152505081806001019250505b80806001019150506106cf565b508192505050919050565b60056020528060005260406000206000915054906101000a900473ffffffffffffffffffffffffffffffffffffffff1681565b816005600082815260200190815260200160002060009054906101000a900473ffffffffffffffffffffffffffffffffffffffff1673ffffffffffffffffffffffffffffffffffffffff163373ffffffffffffffffffffffffffffffffffffffff1614610852576040517f08c379a000000000000000000000000000000000000000000000000000000000815260040161084990611a39565b60405180910390fd5b816004848154811061086057fe5b906000526020600020906003020160010181905550505050565b826005600082815260200190815260200160002060009054906101000a900473ffffffffffffffffffffffffffffffffffffffff1673ffffffffffffffffffffffffffffffffffffffff163373ffffffffffffffffffffffffffffffffffffffff161461091c576040517f08c379a000000000000000000000000000000000000000000000000000000000815260040161091390611a39565b60405180910390fd5b60006004858154811061092b57fe5b90600052602060002090600302019050600254848161094657fe5b06935060006002858360010154018161095b57fe5b04905060405160200161096d90611904565b604051602081830303815290604052805190602001208460405160200161099491906118ed565b6040516020818303038152906040528051906020012014156109c3576016606482816109bc57fe5b0682030190505b8082600101819055506109d582610dd4565b505050505050565b600080821415610a22576040517f08c379a0000000000000000000000000000000000000000000000000000000008152600401610a19906119f9565b60405180910390fd5b600860009054906101000a900473ffffffffffffffffffffffffffffffffffffffff1673ffffffffffffffffffffffffffffffffffffffff1663e98b7f4d836040518263ffffffff1660e01b8152600401610a7d9190611a59565b6101406040518083038186803b158015610a9657600080fd5b505afa158015610aaa573d6000803e3d6000fd5b505050506040513d601f19601f82011682018060405250610ace91908101906113fa565b909192939495969798509091929394959697509091929394959650909192939495509091929394509091929350909192509091509050809150506000811415610b4c576040517f08c379a0000000000000000000000000000000000000000000000000000000008152600401610b43906119d9565b60405180910390fd5b80905092915050565b610b5d610c69565b610b6657600080fd5b600073ffffffffffffffffffffffffffffffffffffffff166000809054906101000a900473ffffffffffffffffffffffffffffffffffffffff1673ffffffffffffffffffffffffffffffffffffffff167f8be0079c531659141344cd1fd0a4f28419497f9722a3daafe3b4186f6b6457e060405160405180910390a360008060006101000a81548173ffffffffffffffffffffffffffffffffffffffff021916908373ffffffffffffffffffffffffffffffffffffffff160217905550565b6000610c3082610dfe565b9050610c3c8282610e41565b5050565b60008060009054906101000a900473ffffffffffffffffffffffffffffffffffffffff16905090565b60008060009054906101000a900473ffffffffffffffffffffffffffffffffffffffff1673ffffffffffffffffffffffffffffffffffffffff163373ffffffffffffffffffffffffffffffffffffffff1614905090565b826005600082815260200190815260200160002060009054906101000a900473ffffffffffffffffffffffffffffffffffffffff1673ffffffffffffffffffffffffffffffffffffffff163373ffffffffffffffffffffffffffffffffffffffff1614610d62576040517f08c379a0000000000000000000000000000000000000000000000000000000008152600401610d5990611a39565b60405180910390fd5b828260048681548110610d7157fe5b90600052602060002090600302016000019190610d8f9291906111ba565b5050505050565b60095481565b610da4610c69565b610dad57600080fd5b8060098190555050565b610dbf610c69565b610dc857600080fd5b610dd1816110a6565b50565b60035442018160020160046101000a81548163ffffffff021916908363ffffffff16021790555050565b60008082604051602001610e1291906118ed565b6040516020818303038152906040528051906020012060001c90506002548181610e3857fe5b06915050919050565b60046040518060c00160405280848152602001838152602001600163ffffffff168152602001600354420163ffffffff168152602001600061ffff168152602001600061ffff1681525090806001815401808255809150506001900390600052602060002090600302016000909190919091506000820151816000019080519060200190610ed092919061123a565b506020820151816001015560408201518160020160006101000a81548163ffffffff021916908363ffffffff16021790555060608201518160020160046101000a81548163ffffffff021916908363ffffffff16021790555060808201518160020160086101000a81548161ffff021916908361ffff16021790555060a082015181600201600a6101000a81548161ffff021916908361ffff160217905550505060006001600480549050039050336005600083815260200190815260200160002060006101000a81548173ffffffffffffffffffffffffffffffffffffffff021916908373ffffffffffffffffffffffffffffffffffffffff1602179055506110236001600660003373ffffffffffffffffffffffffffffffffffffffff1673ffffffffffffffffffffffffffffffffffffffff1681526020019081526020016000205461119e90919063ffffffff16565b600660003373ffffffffffffffffffffffffffffffffffffffff1673ffffffffffffffffffffffffffffffffffffffff168152602001908152602001600020819055507f88f026aacbbecc90c18411df4b1185fd8d9be2470f1962f192bf84a27d0704b781848460405161109993929190611a74565b60405180910390a1505050565b600073ffffffffffffffffffffffffffffffffffffffff168173ffffffffffffffffffffffffffffffffffffffff1614156110e057600080fd5b8073ffffffffffffffffffffffffffffffffffffffff166000809054906101000a900473ffffffffffffffffffffffffffffffffffffffff1673ffffffffffffffffffffffffffffffffffffffff167f8be0079c531659141344cd1fd0a4f28419497f9722a3daafe3b4186f6b6457e060405160405180910390a3806000806101000a81548173ffffffffffffffffffffffffffffffffffffffff021916908373ffffffffffffffffffffffffffffffffffffffff16021790555050565b6000808284019050838110156111b057fe5b8091505092915050565b828054600181600116156101000203166002900490600052602060002090601f016020900481019282601f106111fb57803560ff1916838001178555611229565b82800160010185558215611229579182015b8281111561122857823582559160200191906001019061120d565b5b50905061123691906112ba565b5090565b828054600181600116156101000203166002900490600052602060002090601f016020900481019282601f1061127b57805160ff19168380011785556112a9565b828001600101855582156112a9579182015b828111156112a857825182559160200191906001019061128d565b5b5090506112b691906112ba565b5090565b6112dc91905b808211156112d85760008160009055506001016112c0565b5090565b90565b6000813590506112ee81611c2f565b92915050565b60008151905061130381611c46565b92915050565b60008083601f84011261131b57600080fd5b8235905067ffffffffffffffff81111561133457600080fd5b60208301915083600182028301111561134c57600080fd5b9250929050565b600082601f83011261136457600080fd5b813561137761137282611adf565b611ab2565b9150808252602083016020830185838301111561139357600080fd5b61139e838284611bdc565b50505092915050565b6000813590506113b681611c5d565b92915050565b6000815190506113cb81611c5d565b92915050565b6000602082840312156113e357600080fd5b60006113f1848285016112df565b91505092915050565b6000806000806000806000806000806101408b8d03121561141a57600080fd5b60006114288d828e016112f4565b9a505060206114398d828e016112f4565b995050604061144a8d828e016113bc565b985050606061145b8d828e016113bc565b975050608061146c8d828e016113bc565b96505060a061147d8d828e016113bc565b95505060c061148e8d828e016113bc565b94505060e061149f8d828e016113bc565b9350506101006114b18d828e016113bc565b9250506101206114c38d828e016113bc565b9150509295989b9194979a5092959850565b6000602082840312156114e757600080fd5b600082013567ffffffffffffffff81111561150157600080fd5b61150d84828501611353565b91505092915050565b60006020828403121561152857600080fd5b6000611536848285016113a7565b91505092915050565b60008060006040848603121561155457600080fd5b6000611562868287016113a7565b935050602084013567ffffffffffffffff81111561157f57600080fd5b61158b86828701611309565b92509250509250925092565b600080604083850312156115aa57600080fd5b60006115b8858286016113a7565b92505060206115c9858286016113a7565b9150509250929050565b6000806000606084860312156115e857600080fd5b60006115f6868287016113a7565b9350506020611607868287016113a7565b925050604084013567ffffffffffffffff81111561162457600080fd5b61163086828701611353565b9150509250925092565b600061164683836118c0565b60208301905092915050565b61165b81611b76565b82525050565b600061166c82611b1b565b6116768185611b49565b935061168183611b0b565b8060005b838110156116b2578151611699888261163a565b97506116a483611b3c565b925050600181019050611685565b5085935050505092915050565b6116c881611b88565b82525050565b60006116d982611b31565b6116e38185611b5a565b93506116f3818560208601611beb565b6116fc81611c1e565b840191505092915050565b600061171282611b31565b61171c8185611b6b565b935061172c818560208601611beb565b80840191505092915050565b600061174382611b26565b61174d8185611b5a565b935061175d818560208601611beb565b61176681611c1e565b840191505092915050565b600061177e601383611b5a565b91507f6b6974747920646e61206e6f7420666f756e64000000000000000000000000006000830152602082019050919050565b60006117be601283611b5a565b91507f6b69747479206964206e6f7420666f756e6400000000000000000000000000006000830152602082019050919050565b60006117fe601483611b5a565b91507f616d6f756e74206973206e6f7420656e6f7567680000000000000000000000006000830152602082019050919050565b600061183e600583611b6b565b91507f6b697474790000000000000000000000000000000000000000000000000000006000830152600582019050919050565b600061187e600983611b5a565b91507f6e6f74206f776e657200000000000000000000000000000000000000000000006000830152602082019050919050565b6118ba81611b94565b82525050565b6118c981611bc2565b82525050565b6118d881611bc2565b82525050565b6118e781611bcc565b82525050565b60006118f98284611707565b915081905092915050565b600061190f82611831565b9150819050919050565b600060208201905061192e6000830184611652565b92915050565b6000602082019050818103600083015261194e8184611661565b905092915050565b600060208201905061196b60008301846116bf565b92915050565b600060c082019050818103600083015261198b8189611738565b905061199a60208301886118cf565b6119a760408301876118de565b6119b460608301866118de565b6119c160808301856118b1565b6119ce60a08301846118b1565b979650505050505050565b600060208201905081810360008301526119f281611771565b9050919050565b60006020820190508181036000830152611a12816117b1565b9050919050565b60006020820190508181036000830152611a32816117f1565b9050919050565b60006020820190508181036000830152611a5281611871565b9050919050565b6000602082019050611a6e60008301846118cf565b92915050565b6000606082019050611a8960008301866118cf565b8181036020830152611a9b81856116ce565b9050611aaa60408301846118cf565b949350505050565b6000604051905081810181811067ffffffffffffffff82111715611ad557600080fd5b8060405250919050565b600067ffffffffffffffff821115611af657600080fd5b601f19601f8301169050602081019050919050565b6000819050602082019050919050565b600081519050919050565b600081519050919050565b600081519050919050565b6000602082019050919050565b600082825260208201905092915050565b600082825260208201905092915050565b600081905092915050565b6000611b8182611ba2565b9050919050565b60008115159050919050565b600061ffff82169050919050565b600073ffffffffffffffffffffffffffffffffffffffff82169050919050565b6000819050919050565b600063ffffffff82169050919050565b82818337600083830152505050565b60005b83811015611c09578082015181840152602081019050611bee565b83811115611c18576000848401525b50505050565b6000601f19601f8301169050919050565b611c3881611b76565b8114611c4357600080fd5b50565b611c4f81611b88565b8114611c5a57600080fd5b50565b611c6681611bc2565b8114611c7157600080fd5b5056fea26469706673582212209f12bc411a0e8b38c1b63325a21f80a8190b78c9621ff8b2fc20aa754c1b135e64736f6c63430006000033",
  "source": "pragma solidity >=0.6.0;\r\npragma experimental ABIEncoderV2;\r\nimport './ZombieFeeding.sol';\r\n\r\ncontract ZombieHelper is ZombieFeeding{\r\n  uint public levelUpFee = 0.002 ether;\r\n\r\n  function withdraw() external onlyOwner{\r\n    address _owner = owner();\r\n    payable(_owner).transfer(address(this).balance);\r\n  }\r\n\r\n  function setLevelUpFee(uint _fee) external onlyOwner{\r\n    levelUpFee = _fee;\r\n  }\r\n\r\n  function levelUp(uint _zombieId) external payable returns(uint){\r\n    require(msg.value >= levelUpFee,'amount is not enough');\r\n    zombies[_zombieId].level++;\r\n    return msg.value;\r\n  }\r\n\r\n  function changeName(uint _zombieId, string calldata _newName) external onlyOwnerOf(_zombieId){\r\n    zombies[_zombieId].name = _newName;\r\n  }\r\n\r\n  function changeDna(uint _zombieId, uint _newDna) external onlyOwnerOf(_zombieId){\r\n    zombies[_zombieId].dna = _newDna;\r\n  }\r\n\r\n  function getZombiesByOwner(address _owner) external view returns(uint[] memory){\r\n    uint[] memory result = new uint[](ownerZombieCount[_owner]);\r\n    uint counter = 0;\r\n    for(uint i = 0; i < zombies.length; i++){\r\n      if(zombieToOwner[i] == _owner){\r\n        result[counter] = i;\r\n        counter++;\r\n      }\r\n    }\r\n    return result;\r\n  }\r\n}\r\n",
  "sourcePath": "C:\\Users\\alifa\\Downloads\\dapp\\yadulla_inu\\contracts\\ZombieHelper.sol",
  "compiler": {
    "name": "solc",
    "version": "0.6.0+commit.26b70077.Emscripten.clang"
  },
  "schemaVersion": "3.4.4",
  "updatedAt": "2022-02-27T23:07:03.065Z",
  "networkType": "ethereum",
  "devdoc": {
    "methods": {
      "renounceOwnership()": {
        "details": "Allows the current owner to relinquish control of the contract."
      },
      "transferOwnership(address)": {
        "details": "Allows the current owner to transfer control of the contract to a newOwner.",
        "params": {
          "newOwner": "The address to transfer ownership to."
        }
      }
    }
  },
  "userdoc": {
    "methods": {
      "renounceOwnership()": {
        "notice": "Renouncing to ownership will leave the contract without an owner. It will not be possible to call the functions with the `onlyOwner` modifier anymore."
      }
    }
  }
}