{
  "contractName": "ZombieFactory",
  "abi": [
    {
      "anonymous": false,
      "inputs": [
        {
          "indexed": false,
          "internalType": "uint256",
          "name": "zombieId",
          "type": "uint256"
        },
        {
          "indexed": false,
          "internalType": "string",
          "name": "name",
          "type": "string"
        },
        {
          "indexed": false,
          "internalType": "uint256",
          "name": "dna",
          "type": "uint256"
        }
      ],
      "name": "NewZombie",
      "type": "event"
    },
    {
      "anonymous": false,
      "inputs": [
        {
          "indexed": true,
          "internalType": "address",
          "name": "previousOwner",
          "type": "address"
        },
        {
          "indexed": true,
          "internalType": "address",
          "name": "newOwner",
          "type": "address"
        }
      ],
      "name": "OwnershipTransferred",
      "type": "event"
    },
    {
      "inputs": [],
      "name": "isOwner",
      "outputs": [
        {
          "internalType": "bool",
          "name": "",
          "type": "bool"
        }
      ],
      "stateMutability": "view",
      "type": "function"
    },
    {
      "inputs": [],
      "name": "owner",
      "outputs": [
        {
          "internalType": "address",
          "name": "",
          "type": "address"
        }
      ],
      "stateMutability": "view",
      "type": "function"
    },
    {
      "inputs": [
        {
          "internalType": "address",
          "name": "",
          "type": "address"
        }
      ],
      "name": "ownerZombieCount",
      "outputs": [
        {
          "internalType": "uint256",
          "name": "",
          "type": "uint256"
        }
      ],
      "stateMutability": "view",
      "type": "function"
    },
    {
      "inputs": [],
      "name": "renounceOwnership",
      "outputs": [],
      "stateMutability": "nonpayable",
      "type": "function"
    },
    {
      "inputs": [
        {
          "internalType": "address",
          "name": "newOwner",
          "type": "address"
        }
      ],
      "name": "transferOwnership",
      "outputs": [],
      "stateMutability": "nonpayable",
      "type": "function"
    },
    {
      "inputs": [
        {
          "internalType": "uint256",
          "name": "",
          "type": "uint256"
        }
      ],
      "name": "zombieToOwner",
      "outputs": [
        {
          "internalType": "address",
          "name": "",
          "type": "address"
        }
      ],
      "stateMutability": "view",
      "type": "function"
    },
    {
      "inputs": [
        {
          "internalType": "uint256",
          "name": "",
          "type": "uint256"
        }
      ],
      "name": "zombies",
      "outputs": [
        {
          "internalType": "string",
          "name": "name",
          "type": "string"
        },
        {
          "internalType": "uint256",
          "name": "dna",
          "type": "uint256"
        },
        {
          "internalType": "uint32",
          "name": "level",
          "type": "uint32"
        },
        {
          "internalType": "uint32",
          "name": "readyTime",
          "type": "uint32"
        },
        {
          "internalType": "uint16",
          "name": "winCount",
          "type": "uint16"
        },
        {
          "internalType": "uint16",
          "name": "lossCount",
          "type": "uint16"
        }
      ],
      "stateMutability": "view",
      "type": "function"
    },
    {
      "inputs": [
        {
          "internalType": "string",
          "name": "_name",
          "type": "string"
        }
      ],
      "name": "createRandomZombie",
      "outputs": [],
      "stateMutability": "nonpayable",
      "type": "function"
    }
  ],
  "bytecode": "0x60806040526010600155600154600a0a60025562015180600355336000806101000a81548173ffffffffffffffffffffffffffffffffffffffff021916908373ffffffffffffffffffffffffffffffffffffffff1602179055506000809054906101000a900473ffffffffffffffffffffffffffffffffffffffff1673ffffffffffffffffffffffffffffffffffffffff16600073ffffffffffffffffffffffffffffffffffffffff167f8be0079c531659141344cd1fd0a4f28419497f9722a3daafe3b4186f6b6457e060405160405180910390a3610da6806100e46000396000f3fe608060405234801561001057600080fd5b50600436106100885760003560e01c80637bff0a011161005b5780637bff0a011461012c5780638da5cb5b146101485780638f32d59b14610166578063f2fde38b1461018457610088565b806301afd7e11461008d5780632052465e146100bd578063528b7b8f146100f2578063715018a614610122575b600080fd5b6100a760048036036100a2919081019061096f565b6101a0565b6040516100b49190610ba5565b60405180910390f35b6100d760048036036100d291908101906109d9565b6101b8565b6040516100e996959493929190610b3d565b60405180910390f35b61010c600480360361010791908101906109d9565b6102d5565b6040516101199190610b07565b60405180910390f35b61012a610308565b005b61014660048036036101419190810190610998565b6103d8565b005b6101506103f3565b60405161015d9190610b07565b60405180910390f35b61016e61041c565b60405161017b9190610b22565b60405180910390f35b61019e6004803603610199919081019061096f565b610473565b005b60066020528060005260406000206000915090505481565b600481815481106101c557fe5b9060005260206000209060030201600091509050806000018054600181600116156101000203166002900480601f0160208091040260200160405190810160405280929190818152602001828054600181600116156101000203166002900480156102715780601f1061024657610100808354040283529160200191610271565b820191906000526020600020905b81548152906001019060200180831161025457829003601f168201915b5050505050908060010154908060020160009054906101000a900463ffffffff16908060020160049054906101000a900463ffffffff16908060020160089054906101000a900461ffff169080600201600a9054906101000a900461ffff16905086565b60056020528060005260406000206000915054906101000a900473ffffffffffffffffffffffffffffffffffffffff1681565b61031061041c565b61031957600080fd5b600073ffffffffffffffffffffffffffffffffffffffff166000809054906101000a900473ffffffffffffffffffffffffffffffffffffffff1673ffffffffffffffffffffffffffffffffffffffff167f8be0079c531659141344cd1fd0a4f28419497f9722a3daafe3b4186f6b6457e060405160405180910390a360008060006101000a81548173ffffffffffffffffffffffffffffffffffffffff021916908373ffffffffffffffffffffffffffffffffffffffff160217905550565b60006103e382610490565b90506103ef82826104d3565b5050565b60008060009054906101000a900473ffffffffffffffffffffffffffffffffffffffff16905090565b60008060009054906101000a900473ffffffffffffffffffffffffffffffffffffffff1673ffffffffffffffffffffffffffffffffffffffff163373ffffffffffffffffffffffffffffffffffffffff1614905090565b61047b61041c565b61048457600080fd5b61048d81610738565b50565b600080826040516020016104a49190610af0565b6040516020818303038152906040528051906020012060001c905060025481816104ca57fe5b06915050919050565b60046040518060c00160405280848152602001838152602001600163ffffffff168152602001600354420163ffffffff168152602001600061ffff168152602001600061ffff168152509080600181540180825580915050600190039060005260206000209060030201600090919091909150600082015181600001908051906020019061056292919061084c565b506020820151816001015560408201518160020160006101000a81548163ffffffff021916908363ffffffff16021790555060608201518160020160046101000a81548163ffffffff021916908363ffffffff16021790555060808201518160020160086101000a81548161ffff021916908361ffff16021790555060a082015181600201600a6101000a81548161ffff021916908361ffff160217905550505060006001600480549050039050336005600083815260200190815260200160002060006101000a81548173ffffffffffffffffffffffffffffffffffffffff021916908373ffffffffffffffffffffffffffffffffffffffff1602179055506106b56001600660003373ffffffffffffffffffffffffffffffffffffffff1673ffffffffffffffffffffffffffffffffffffffff1681526020019081526020016000205461083090919063ffffffff16565b600660003373ffffffffffffffffffffffffffffffffffffffff1673ffffffffffffffffffffffffffffffffffffffff168152602001908152602001600020819055507f88f026aacbbecc90c18411df4b1185fd8d9be2470f1962f192bf84a27d0704b781848460405161072b93929190610bc0565b60405180910390a1505050565b600073ffffffffffffffffffffffffffffffffffffffff168173ffffffffffffffffffffffffffffffffffffffff16141561077257600080fd5b8073ffffffffffffffffffffffffffffffffffffffff166000809054906101000a900473ffffffffffffffffffffffffffffffffffffffff1673ffffffffffffffffffffffffffffffffffffffff167f8be0079c531659141344cd1fd0a4f28419497f9722a3daafe3b4186f6b6457e060405160405180910390a3806000806101000a81548173ffffffffffffffffffffffffffffffffffffffff021916908373ffffffffffffffffffffffffffffffffffffffff16021790555050565b60008082840190508381101561084257fe5b8091505092915050565b828054600181600116156101000203166002900490600052602060002090601f016020900481019282601f1061088d57805160ff19168380011785556108bb565b828001600101855582156108bb579182015b828111156108ba57825182559160200191906001019061089f565b5b5090506108c891906108cc565b5090565b6108ee91905b808211156108ea5760008160009055506001016108d2565b5090565b90565b60008135905061090081610d42565b92915050565b600082601f83011261091757600080fd5b813561092a61092582610c2b565b610bfe565b9150808252602083016020830185838301111561094657600080fd5b610951838284610cef565b50505092915050565b60008135905061096981610d59565b92915050565b60006020828403121561098157600080fd5b600061098f848285016108f1565b91505092915050565b6000602082840312156109aa57600080fd5b600082013567ffffffffffffffff8111156109c457600080fd5b6109d084828501610906565b91505092915050565b6000602082840312156109eb57600080fd5b60006109f98482850161095a565b91505092915050565b610a0b81610c89565b82525050565b610a1a81610c9b565b82525050565b6000610a2b82610c62565b610a358185610c6d565b9350610a45818560208601610cfe565b610a4e81610d31565b840191505092915050565b6000610a6482610c62565b610a6e8185610c7e565b9350610a7e818560208601610cfe565b80840191505092915050565b6000610a9582610c57565b610a9f8185610c6d565b9350610aaf818560208601610cfe565b610ab881610d31565b840191505092915050565b610acc81610ca7565b82525050565b610adb81610cd5565b82525050565b610aea81610cdf565b82525050565b6000610afc8284610a59565b915081905092915050565b6000602082019050610b1c6000830184610a02565b92915050565b6000602082019050610b376000830184610a11565b92915050565b600060c0820190508181036000830152610b578189610a8a565b9050610b666020830188610ad2565b610b736040830187610ae1565b610b806060830186610ae1565b610b8d6080830185610ac3565b610b9a60a0830184610ac3565b979650505050505050565b6000602082019050610bba6000830184610ad2565b92915050565b6000606082019050610bd56000830186610ad2565b8181036020830152610be78185610a20565b9050610bf66040830184610ad2565b949350505050565b6000604051905081810181811067ffffffffffffffff82111715610c2157600080fd5b8060405250919050565b600067ffffffffffffffff821115610c4257600080fd5b601f19601f8301169050602081019050919050565b600081519050919050565b600081519050919050565b600082825260208201905092915050565b600081905092915050565b6000610c9482610cb5565b9050919050565b60008115159050919050565b600061ffff82169050919050565b600073ffffffffffffffffffffffffffffffffffffffff82169050919050565b6000819050919050565b600063ffffffff82169050919050565b82818337600083830152505050565b60005b83811015610d1c578082015181840152602081019050610d01565b83811115610d2b576000848401525b50505050565b6000601f19601f8301169050919050565b610d4b81610c89565b8114610d5657600080fd5b50565b610d6281610cd5565b8114610d6d57600080fd5b5056fea264697066735822122090ae0bda1c07b8d365209c82014ece90ed5ef13a10d13b96827d3d45084ad74f64736f6c63430006000033",
  "source": "\npragma solidity >=0.6.0;\npragma experimental ABIEncoderV2;\n// This is just a simple example of a coin-like contract.\n// It is not standards compatible and cannot be expected to talk to other\n// coin/token contracts. If you want to create a standards-compliant\n// token, see: https://github.com/ConsenSys/Tokens. Cheers!\nimport \"./safemath.sol\";\nimport \"./ownable.sol\";\n\ncontract ZombieFactory is Ownable{\n\n\tusing SafeMath for uint256;\n\tusing SafeMath16 for uint16;\n\tusing SafeMath32 for uint32;\n\n\tevent NewZombie(uint zombieId, string name, uint dna);\n\n\tuint dnaDigits = 16;\n\tuint dnaModulus = 10 ** dnaDigits;\n\tuint cooldownTime = 1 days;\n\t//structs are used for custom data types with more than one member\n\tstruct Zombie{\n\t\tstring name;\n\t\tuint dna;\n\t\tuint32 level;\n\t\tuint32 readyTime;\n\t\tuint16 winCount;\n\t\tuint16 lossCount;\n\t}\n\n\tZombie[] public zombies;\n\n\tmapping (uint => address) public zombieToOwner;\n\tmapping (address => uint) public ownerZombieCount;\n\n\tfunction _createZombie(string memory _name, uint _dna) internal {\n\t\tzombies.push(Zombie(_name, _dna, 1, uint32(now + cooldownTime), 0, 0));\n\t\tuint id = zombies.length - 1;\n\t\tzombieToOwner[id] = msg.sender;\n\t\townerZombieCount[msg.sender] = ownerZombieCount[msg.sender].add(1);\n\t\temit NewZombie(id, _name, _dna);\n\t}\n\n\tfunction _generateRandomDna(string memory _name) private view returns (uint){\n\t\tuint rand = uint(keccak256(abi.encodePacked(_name)));\n\t\treturn rand % dnaModulus;\n\t}\n\n\tfunction createRandomZombie(string memory _name) public {\n\t\tuint randDna = _generateRandomDna(_name);\n\t\t_createZombie(_name, randDna);\n\t}\n}\n",
  "sourcePath": "C:\\Users\\alifa\\Downloads\\dapp\\yadulla_inu\\contracts\\ZombieFactory.sol",
  "compiler": {
    "name": "solc",
    "version": "0.6.0+commit.26b70077.Emscripten.clang"
  },
  "schemaVersion": "3.4.4",
  "updatedAt": "2022-02-27T23:06:59.553Z",
  "devdoc": {
    "methods": {
      "renounceOwnership()": {
        "details": "Allows the current owner to relinquish control of the contract."
      },
      "transferOwnership(address)": {
        "details": "Allows the current owner to transfer control of the contract to a newOwner.",
        "params": {
          "newOwner": "The address to transfer ownership to."
        }
      }
    }
  },
  "userdoc": {
    "methods": {
      "renounceOwnership()": {
        "notice": "Renouncing to ownership will leave the contract without an owner. It will not be possible to call the functions with the `onlyOwner` modifier anymore."
      }
    }
  }
}